{
  "_format": "hh-sol-artifact-1",
  "contractName": "Web3Mint",
  "sourceName": "contracts/web3Mint.sol",
  "abi": [
    {
      "inputs": [],
      "stateMutability": "nonpayable",
      "type": "constructor"
    },
    {
      "anonymous": false,
      "inputs": [
        {
          "indexed": true,
          "internalType": "address",
          "name": "owner",
          "type": "address"
        },
        {
          "indexed": true,
          "internalType": "address",
          "name": "approved",
          "type": "address"
        },
        {
          "indexed": true,
          "internalType": "uint256",
          "name": "tokenId",
          "type": "uint256"
        }
      ],
      "name": "Approval",
      "type": "event"
    },
    {
      "anonymous": false,
      "inputs": [
        {
          "indexed": true,
          "internalType": "address",
          "name": "owner",
          "type": "address"
        },
        {
          "indexed": true,
          "internalType": "address",
          "name": "operator",
          "type": "address"
        },
        {
          "indexed": false,
          "internalType": "bool",
          "name": "approved",
          "type": "bool"
        }
      ],
      "name": "ApprovalForAll",
      "type": "event"
    },
    {
      "anonymous": false,
      "inputs": [
        {
          "indexed": true,
          "internalType": "address",
          "name": "from",
          "type": "address"
        },
        {
          "indexed": true,
          "internalType": "address",
          "name": "to",
          "type": "address"
        },
        {
          "indexed": true,
          "internalType": "uint256",
          "name": "tokenId",
          "type": "uint256"
        }
      ],
      "name": "Transfer",
      "type": "event"
    },
    {
      "inputs": [
        {
          "internalType": "address",
          "name": "to",
          "type": "address"
        },
        {
          "internalType": "uint256",
          "name": "tokenId",
          "type": "uint256"
        }
      ],
      "name": "approve",
      "outputs": [],
      "stateMutability": "nonpayable",
      "type": "function"
    },
    {
      "inputs": [
        {
          "internalType": "address",
          "name": "owner",
          "type": "address"
        }
      ],
      "name": "balanceOf",
      "outputs": [
        {
          "internalType": "uint256",
          "name": "",
          "type": "uint256"
        }
      ],
      "stateMutability": "view",
      "type": "function"
    },
    {
      "inputs": [
        {
          "internalType": "uint256",
          "name": "tokenId",
          "type": "uint256"
        }
      ],
      "name": "getApproved",
      "outputs": [
        {
          "internalType": "address",
          "name": "",
          "type": "address"
        }
      ],
      "stateMutability": "view",
      "type": "function"
    },
    {
      "inputs": [
        {
          "internalType": "address",
          "name": "owner",
          "type": "address"
        },
        {
          "internalType": "address",
          "name": "operator",
          "type": "address"
        }
      ],
      "name": "isApprovedForAll",
      "outputs": [
        {
          "internalType": "bool",
          "name": "",
          "type": "bool"
        }
      ],
      "stateMutability": "view",
      "type": "function"
    },
    {
      "inputs": [
        {
          "internalType": "string",
          "name": "name",
          "type": "string"
        },
        {
          "internalType": "string",
          "name": "imageURI",
          "type": "string"
        }
      ],
      "name": "mintIpfsNFT",
      "outputs": [],
      "stateMutability": "nonpayable",
      "type": "function"
    },
    {
      "inputs": [],
      "name": "name",
      "outputs": [
        {
          "internalType": "string",
          "name": "",
          "type": "string"
        }
      ],
      "stateMutability": "view",
      "type": "function"
    },
    {
      "inputs": [
        {
          "internalType": "uint256",
          "name": "tokenId",
          "type": "uint256"
        }
      ],
      "name": "ownerOf",
      "outputs": [
        {
          "internalType": "address",
          "name": "",
          "type": "address"
        }
      ],
      "stateMutability": "view",
      "type": "function"
    },
    {
      "inputs": [
        {
          "internalType": "address",
          "name": "from",
          "type": "address"
        },
        {
          "internalType": "address",
          "name": "to",
          "type": "address"
        },
        {
          "internalType": "uint256",
          "name": "tokenId",
          "type": "uint256"
        }
      ],
      "name": "safeTransferFrom",
      "outputs": [],
      "stateMutability": "nonpayable",
      "type": "function"
    },
    {
      "inputs": [
        {
          "internalType": "address",
          "name": "from",
          "type": "address"
        },
        {
          "internalType": "address",
          "name": "to",
          "type": "address"
        },
        {
          "internalType": "uint256",
          "name": "tokenId",
          "type": "uint256"
        },
        {
          "internalType": "bytes",
          "name": "data",
          "type": "bytes"
        }
      ],
      "name": "safeTransferFrom",
      "outputs": [],
      "stateMutability": "nonpayable",
      "type": "function"
    },
    {
      "inputs": [
        {
          "internalType": "address",
          "name": "operator",
          "type": "address"
        },
        {
          "internalType": "bool",
          "name": "approved",
          "type": "bool"
        }
      ],
      "name": "setApprovalForAll",
      "outputs": [],
      "stateMutability": "nonpayable",
      "type": "function"
    },
    {
      "inputs": [
        {
          "internalType": "bytes4",
          "name": "interfaceId",
          "type": "bytes4"
        }
      ],
      "name": "supportsInterface",
      "outputs": [
        {
          "internalType": "bool",
          "name": "",
          "type": "bool"
        }
      ],
      "stateMutability": "view",
      "type": "function"
    },
    {
      "inputs": [],
      "name": "symbol",
      "outputs": [
        {
          "internalType": "string",
          "name": "",
          "type": "string"
        }
      ],
      "stateMutability": "view",
      "type": "function"
    },
    {
      "inputs": [
        {
          "internalType": "uint256",
          "name": "_tokenId",
          "type": "uint256"
        }
      ],
      "name": "tokenURI",
      "outputs": [
        {
          "internalType": "string",
          "name": "",
          "type": "string"
        }
      ],
      "stateMutability": "view",
      "type": "function"
    },
    {
      "inputs": [
        {
          "internalType": "address",
          "name": "from",
          "type": "address"
        },
        {
          "internalType": "address",
          "name": "to",
          "type": "address"
        },
        {
          "internalType": "uint256",
          "name": "tokenId",
          "type": "uint256"
        }
      ],
      "name": "transferFrom",
      "outputs": [],
      "stateMutability": "nonpayable",
      "type": "function"
    }
  ],
  "bytecode": "0x60806040523480156200001157600080fd5b506040518060400160405280600381526020017f4e465400000000000000000000000000000000000000000000000000000000008152506040518060400160405280600381526020017f6e6674000000000000000000000000000000000000000000000000000000000081525081600090816200008f91906200043b565b508060019081620000a191906200043b565b505050620000ef6040518060400160405280601881526020017f54686973206973206d79204e465420636f6e74726163742e0000000000000000815250620000f560201b62000a871760201c565b620005d5565b62000195816040516024016200010c9190620005b1565b6040516020818303038152906040527f41304fac000000000000000000000000000000000000000000000000000000007bffffffffffffffffffffffffffffffffffffffffffffffffffffffff19166020820180517bffffffffffffffffffffffffffffffffffffffffffffffffffffffff83818316178352505050506200019860201b60201c565b50565b60008151905060006a636f6e736f6c652e6c6f679050602083016000808483855afa5050505050565b600081519050919050565b7f4e487b7100000000000000000000000000000000000000000000000000000000600052604160045260246000fd5b7f4e487b7100000000000000000000000000000000000000000000000000000000600052602260045260246000fd5b600060028204905060018216806200024357607f821691505b602082108103620002595762000258620001fb565b5b50919050565b60008190508160005260206000209050919050565b60006020601f8301049050919050565b600082821b905092915050565b600060088302620002c37fffffffffffffffffffffffffffffffffffffffffffffffffffffffffffffffff8262000284565b620002cf868362000284565b95508019841693508086168417925050509392505050565b6000819050919050565b6000819050919050565b60006200031c620003166200031084620002e7565b620002f1565b620002e7565b9050919050565b6000819050919050565b6200033883620002fb565b62000350620003478262000323565b84845462000291565b825550505050565b600090565b6200036762000358565b620003748184846200032d565b505050565b5b818110156200039c57620003906000826200035d565b6001810190506200037a565b5050565b601f821115620003eb57620003b5816200025f565b620003c08462000274565b81016020851015620003d0578190505b620003e8620003df8562000274565b83018262000379565b50505b505050565b600082821c905092915050565b60006200041060001984600802620003f0565b1980831691505092915050565b60006200042b8383620003fd565b9150826002028217905092915050565b6200044682620001c1565b67ffffffffffffffff811115620004625762000461620001cc565b5b6200046e82546200022a565b6200047b828285620003a0565b600060209050601f831160018114620004b357600084156200049e578287015190505b620004aa85826200041d565b8655506200051a565b601f198416620004c3866200025f565b60005b82811015620004ed57848901518255600182019150602085019450602081019050620004c6565b868310156200050d578489015162000509601f891682620003fd565b8355505b6001600288020188555050505b505050505050565b600082825260208201905092915050565b60005b838110156200055357808201518184015260208101905062000536565b60008484015250505050565b6000601f19601f8301169050919050565b60006200057d82620001c1565b62000589818562000522565b93506200059b81856020860162000533565b620005a6816200055f565b840191505092915050565b60006020820190508181036000830152620005cd818462000570565b905092915050565b6131dd80620005e56000396000f3fe608060405234801561001057600080fd5b50600436106100ea5760003560e01c806370a082311161008c578063b88d4fde11610066578063b88d4fde1461025b578063c87b56dd14610277578063e985e9c5146102a7578063eb00195d146102d7576100ea565b806370a08231146101f157806395d89b4114610221578063a22cb4651461023f576100ea565b8063095ea7b3116100c8578063095ea7b31461016d57806323b872dd1461018957806342842e0e146101a55780636352211e146101c1576100ea565b806301ffc9a7146100ef57806306fdde031461011f578063081812fc1461013d575b600080fd5b61010960048036038101906101049190611ce6565b6102f3565b6040516101169190611d2e565b60405180910390f35b6101276103d5565b6040516101349190611dd9565b60405180910390f35b61015760048036038101906101529190611e31565b610467565b6040516101649190611e9f565b60405180910390f35b61018760048036038101906101829190611ee6565b6104ad565b005b6101a3600480360381019061019e9190611f26565b6105c4565b005b6101bf60048036038101906101ba9190611f26565b610624565b005b6101db60048036038101906101d69190611e31565b610644565b6040516101e89190611e9f565b60405180910390f35b61020b60048036038101906102069190611f79565b6106ca565b6040516102189190611fb5565b60405180910390f35b610229610781565b6040516102369190611dd9565b60405180910390f35b61025960048036038101906102549190611ffc565b610813565b005b61027560048036038101906102709190612171565b610829565b005b610291600480360381019061028c9190611e31565b61088b565b60405161029e9190611dd9565b60405180910390f35b6102c160048036038101906102bc91906121f4565b61093b565b6040516102ce9190611d2e565b60405180910390f35b6102f160048036038101906102ec91906122d5565b6109cf565b005b60007f80ac58cd000000000000000000000000000000000000000000000000000000007bffffffffffffffffffffffffffffffffffffffffffffffffffffffff1916827bffffffffffffffffffffffffffffffffffffffffffffffffffffffff191614806103be57507f5b5e139f000000000000000000000000000000000000000000000000000000007bffffffffffffffffffffffffffffffffffffffffffffffffffffffff1916827bffffffffffffffffffffffffffffffffffffffffffffffffffffffff1916145b806103ce57506103cd82610b20565b5b9050919050565b6060600080546103e49061237c565b80601f01602080910402602001604051908101604052809291908181526020018280546104109061237c565b801561045d5780601f106104325761010080835404028352916020019161045d565b820191906000526020600020905b81548152906001019060200180831161044057829003601f168201915b5050505050905090565b600061047282610b8a565b6004600083815260200190815260200160002060009054906101000a900473ffffffffffffffffffffffffffffffffffffffff169050919050565b60006104b882610644565b90508073ffffffffffffffffffffffffffffffffffffffff168373ffffffffffffffffffffffffffffffffffffffff1603610528576040517f08c379a000000000000000000000000000000000000000000000000000000000815260040161051f9061241f565b60405180910390fd5b8073ffffffffffffffffffffffffffffffffffffffff16610547610bd5565b73ffffffffffffffffffffffffffffffffffffffff161480610576575061057581610570610bd5565b61093b565b5b6105b5576040517f08c379a00000000000000000000000000000000000000000000000000000000081526004016105ac906124b1565b60405180910390fd5b6105bf8383610bdd565b505050565b6105d56105cf610bd5565b82610c96565b610614576040517f08c379a000000000000000000000000000000000000000000000000000000000815260040161060b90612543565b60405180910390fd5b61061f838383610d2b565b505050565b61063f83838360405180602001604052806000815250610829565b505050565b60008061065083611024565b9050600073ffffffffffffffffffffffffffffffffffffffff168173ffffffffffffffffffffffffffffffffffffffff16036106c1576040517f08c379a00000000000000000000000000000000000000000000000000000000081526004016106b8906125af565b60405180910390fd5b80915050919050565b60008073ffffffffffffffffffffffffffffffffffffffff168273ffffffffffffffffffffffffffffffffffffffff160361073a576040517f08c379a000000000000000000000000000000000000000000000000000000000815260040161073190612641565b60405180910390fd5b600360008373ffffffffffffffffffffffffffffffffffffffff1673ffffffffffffffffffffffffffffffffffffffff168152602001908152602001600020549050919050565b6060600180546107909061237c565b80601f01602080910402602001604051908101604052809291908181526020018280546107bc9061237c565b80156108095780601f106107de57610100808354040283529160200191610809565b820191906000526020600020905b8154815290600101906020018083116107ec57829003601f168201915b5050505050905090565b61082561081e610bd5565b8383611061565b5050565b61083a610834610bd5565b83610c96565b610879576040517f08c379a000000000000000000000000000000000000000000000000000000000815260040161087090612543565b60405180910390fd5b610885848484846111cd565b50505050565b6060600061090b600684815481106108a6576108a5612661565b5b90600052602060002090600202016000016108c085611229565b600686815481106108d4576108d3612661565b5b90600052602060002090600202016001016040516020016108f7939291906128ba565b6040516020818303038152906040526112f7565b90506000816040516020016109209190612963565b60405160208183030381529060405290508092505050919050565b6000600560008473ffffffffffffffffffffffffffffffffffffffff1673ffffffffffffffffffffffffffffffffffffffff16815260200190815260200160002060008373ffffffffffffffffffffffffffffffffffffffff1673ffffffffffffffffffffffffffffffffffffffff16815260200190815260200160002060009054906101000a900460ff16905092915050565b60006109db600761148e565b90506109e7338261149c565b600660405180604001604052808581526020018481525090806001815401808255809150506001900390600052602060002090600202016000909190919091506000820151816000019081610a3c9190612b1c565b506020820151816001019081610a529190612b1c565b505050610a786040518060600160405280602581526020016131436025913982336114ba565b610a826007611559565b505050565b610b1d81604051602401610a9b9190611dd9565b6040516020818303038152906040527f41304fac000000000000000000000000000000000000000000000000000000007bffffffffffffffffffffffffffffffffffffffffffffffffffffffff19166020820180517bffffffffffffffffffffffffffffffffffffffffffffffffffffffff838183161783525050505061156f565b50565b60007f01ffc9a7000000000000000000000000000000000000000000000000000000007bffffffffffffffffffffffffffffffffffffffffffffffffffffffff1916827bffffffffffffffffffffffffffffffffffffffffffffffffffffffff1916149050919050565b610b9381611598565b610bd2576040517f08c379a0000000000000000000000000000000000000000000000000000000008152600401610bc9906125af565b60405180910390fd5b50565b600033905090565b816004600083815260200190815260200160002060006101000a81548173ffffffffffffffffffffffffffffffffffffffff021916908373ffffffffffffffffffffffffffffffffffffffff160217905550808273ffffffffffffffffffffffffffffffffffffffff16610c5083610644565b73ffffffffffffffffffffffffffffffffffffffff167f8c5be1e5ebec7d5bd14f71427d1e84f3dd0314c0f7b2291e5b200ac8c7c3b92560405160405180910390a45050565b600080610ca283610644565b90508073ffffffffffffffffffffffffffffffffffffffff168473ffffffffffffffffffffffffffffffffffffffff161480610ce45750610ce3818561093b565b5b80610d2257508373ffffffffffffffffffffffffffffffffffffffff16610d0a84610467565b73ffffffffffffffffffffffffffffffffffffffff16145b91505092915050565b8273ffffffffffffffffffffffffffffffffffffffff16610d4b82610644565b73ffffffffffffffffffffffffffffffffffffffff1614610da1576040517f08c379a0000000000000000000000000000000000000000000000000000000008152600401610d9890612c60565b60405180910390fd5b600073ffffffffffffffffffffffffffffffffffffffff168273ffffffffffffffffffffffffffffffffffffffff1603610e10576040517f08c379a0000000000000000000000000000000000000000000000000000000008152600401610e0790612cf2565b60405180910390fd5b610e1d83838360016115d9565b8273ffffffffffffffffffffffffffffffffffffffff16610e3d82610644565b73ffffffffffffffffffffffffffffffffffffffff1614610e93576040517f08c379a0000000000000000000000000000000000000000000000000000000008152600401610e8a90612c60565b60405180910390fd5b6004600082815260200190815260200160002060006101000a81549073ffffffffffffffffffffffffffffffffffffffff02191690556001600360008573ffffffffffffffffffffffffffffffffffffffff1673ffffffffffffffffffffffffffffffffffffffff168152602001908152602001600020600082825403925050819055506001600360008473ffffffffffffffffffffffffffffffffffffffff1673ffffffffffffffffffffffffffffffffffffffff16815260200190815260200160002060008282540192505081905550816002600083815260200190815260200160002060006101000a81548173ffffffffffffffffffffffffffffffffffffffff021916908373ffffffffffffffffffffffffffffffffffffffff160217905550808273ffffffffffffffffffffffffffffffffffffffff168473ffffffffffffffffffffffffffffffffffffffff167fddf252ad1be2c89b69c2b068fc378daa952ba7f163c4a11628f55a4df523b3ef60405160405180910390a461101f83838360016116ff565b505050565b60006002600083815260200190815260200160002060009054906101000a900473ffffffffffffffffffffffffffffffffffffffff169050919050565b8173ffffffffffffffffffffffffffffffffffffffff168373ffffffffffffffffffffffffffffffffffffffff16036110cf576040517f08c379a00000000000000000000000000000000000000000000000000000000081526004016110c690612d5e565b60405180910390fd5b80600560008573ffffffffffffffffffffffffffffffffffffffff1673ffffffffffffffffffffffffffffffffffffffff16815260200190815260200160002060008473ffffffffffffffffffffffffffffffffffffffff1673ffffffffffffffffffffffffffffffffffffffff16815260200190815260200160002060006101000a81548160ff0219169083151502179055508173ffffffffffffffffffffffffffffffffffffffff168373ffffffffffffffffffffffffffffffffffffffff167f17307eab39ab6107e8899845ad3d59bd9653f200f220920489ca2b5937696c31836040516111c09190611d2e565b60405180910390a3505050565b6111d8848484610d2b565b6111e484848484611705565b611223576040517f08c379a000000000000000000000000000000000000000000000000000000000815260040161121a90612df0565b60405180910390fd5b50505050565b6060600060016112388461188c565b01905060008167ffffffffffffffff81111561125757611256612046565b5b6040519080825280601f01601f1916602001820160405280156112895781602001600182028036833780820191505090505b509050600082602001820190505b6001156112ec578080600190039150507f3031323334353637383961626364656600000000000000000000000000000000600a86061a8153600a85816112e0576112df612e10565b5b04945060008503611297575b819350505050919050565b60606000825190506000810361131f5760405180602001604052806000815250915050611489565b600060036002836113309190612e6e565b61133a9190612ea2565b60046113469190612ed3565b905060006020826113579190612e6e565b67ffffffffffffffff8111156113705761136f612046565b5b6040519080825280601f01601f1916602001820160405280156113a25781602001600182028036833780820191505090505b5090506000604051806060016040528060408152602001613168604091399050600181016020830160005b868110156114465760038101905062ffffff818a015116603f8160121c168401518060081b905060ff603f83600c1c1686015116810190508060081b905060ff603f8360061c1686015116810190508060081b905060ff603f831686015116810190508060e01b905080845260048401935050506113cd565b50600386066001811461146057600281146114705761147b565b613d3d60f01b600283035261147b565b603d60f81b60018303525b508484525050819450505050505b919050565b600081600001549050919050565b6114b68282604051806020016040528060008152506119df565b5050565b6115548383836040516024016114d293929190612f15565b6040516020818303038152906040527f1c7ec448000000000000000000000000000000000000000000000000000000007bffffffffffffffffffffffffffffffffffffffffffffffffffffffff19166020820180517bffffffffffffffffffffffffffffffffffffffffffffffffffffffff838183161783525050505061156f565b505050565b6001816000016000828254019250508190555050565b60008151905060006a636f6e736f6c652e6c6f679050602083016000808483855afa5050505050565b60008073ffffffffffffffffffffffffffffffffffffffff166115ba83611024565b73ffffffffffffffffffffffffffffffffffffffff1614159050919050565b60018111156116f957600073ffffffffffffffffffffffffffffffffffffffff168473ffffffffffffffffffffffffffffffffffffffff161461166d5780600360008673ffffffffffffffffffffffffffffffffffffffff1673ffffffffffffffffffffffffffffffffffffffff16815260200190815260200160002060008282546116659190612f53565b925050819055505b600073ffffffffffffffffffffffffffffffffffffffff168373ffffffffffffffffffffffffffffffffffffffff16146116f85780600360008573ffffffffffffffffffffffffffffffffffffffff1673ffffffffffffffffffffffffffffffffffffffff16815260200190815260200160002060008282546116f09190612e6e565b925050819055505b5b50505050565b50505050565b60006117268473ffffffffffffffffffffffffffffffffffffffff16611a3a565b1561187f578373ffffffffffffffffffffffffffffffffffffffff1663150b7a0261174f610bd5565b8786866040518563ffffffff1660e01b81526004016117719493929190612fdc565b6020604051808303816000875af19250505080156117ad57506040513d601f19601f820116820180604052508101906117aa919061303d565b60015b61182f573d80600081146117dd576040519150601f19603f3d011682016040523d82523d6000602084013e6117e2565b606091505b506000815103611827576040517f08c379a000000000000000000000000000000000000000000000000000000000815260040161181e90612df0565b60405180910390fd5b805181602001fd5b63150b7a0260e01b7bffffffffffffffffffffffffffffffffffffffffffffffffffffffff1916817bffffffffffffffffffffffffffffffffffffffffffffffffffffffff191614915050611884565b600190505b949350505050565b600080600090507a184f03e93ff9f4daa797ed6e38ed64bf6a1f01000000000000000083106118ea577a184f03e93ff9f4daa797ed6e38ed64bf6a1f01000000000000000083816118e0576118df612e10565b5b0492506040810190505b6d04ee2d6d415b85acef81000000008310611927576d04ee2d6d415b85acef8100000000838161191d5761191c612e10565b5b0492506020810190505b662386f26fc10000831061195657662386f26fc10000838161194c5761194b612e10565b5b0492506010810190505b6305f5e100831061197f576305f5e100838161197557611974612e10565b5b0492506008810190505b61271083106119a457612710838161199a57611999612e10565b5b0492506004810190505b606483106119c757606483816119bd576119bc612e10565b5b0492506002810190505b600a83106119d6576001810190505b80915050919050565b6119e98383611a5d565b6119f66000848484611705565b611a35576040517f08c379a0000000000000000000000000000000000000000000000000000000008152600401611a2c90612df0565b60405180910390fd5b505050565b6000808273ffffffffffffffffffffffffffffffffffffffff163b119050919050565b600073ffffffffffffffffffffffffffffffffffffffff168273ffffffffffffffffffffffffffffffffffffffff1603611acc576040517f08c379a0000000000000000000000000000000000000000000000000000000008152600401611ac3906130b6565b60405180910390fd5b611ad581611598565b15611b15576040517f08c379a0000000000000000000000000000000000000000000000000000000008152600401611b0c90613122565b60405180910390fd5b611b236000838360016115d9565b611b2c81611598565b15611b6c576040517f08c379a0000000000000000000000000000000000000000000000000000000008152600401611b6390613122565b60405180910390fd5b6001600360008473ffffffffffffffffffffffffffffffffffffffff1673ffffffffffffffffffffffffffffffffffffffff16815260200190815260200160002060008282540192505081905550816002600083815260200190815260200160002060006101000a81548173ffffffffffffffffffffffffffffffffffffffff021916908373ffffffffffffffffffffffffffffffffffffffff160217905550808273ffffffffffffffffffffffffffffffffffffffff16600073ffffffffffffffffffffffffffffffffffffffff167fddf252ad1be2c89b69c2b068fc378daa952ba7f163c4a11628f55a4df523b3ef60405160405180910390a4611c766000838360016116ff565b5050565b6000604051905090565b600080fd5b600080fd5b60007fffffffff0000000000000000000000000000000000000000000000000000000082169050919050565b611cc381611c8e565b8114611cce57600080fd5b50565b600081359050611ce081611cba565b92915050565b600060208284031215611cfc57611cfb611c84565b5b6000611d0a84828501611cd1565b91505092915050565b60008115159050919050565b611d2881611d13565b82525050565b6000602082019050611d436000830184611d1f565b92915050565b600081519050919050565b600082825260208201905092915050565b60005b83811015611d83578082015181840152602081019050611d68565b60008484015250505050565b6000601f19601f8301169050919050565b6000611dab82611d49565b611db58185611d54565b9350611dc5818560208601611d65565b611dce81611d8f565b840191505092915050565b60006020820190508181036000830152611df38184611da0565b905092915050565b6000819050919050565b611e0e81611dfb565b8114611e1957600080fd5b50565b600081359050611e2b81611e05565b92915050565b600060208284031215611e4757611e46611c84565b5b6000611e5584828501611e1c565b91505092915050565b600073ffffffffffffffffffffffffffffffffffffffff82169050919050565b6000611e8982611e5e565b9050919050565b611e9981611e7e565b82525050565b6000602082019050611eb46000830184611e90565b92915050565b611ec381611e7e565b8114611ece57600080fd5b50565b600081359050611ee081611eba565b92915050565b60008060408385031215611efd57611efc611c84565b5b6000611f0b85828601611ed1565b9250506020611f1c85828601611e1c565b9150509250929050565b600080600060608486031215611f3f57611f3e611c84565b5b6000611f4d86828701611ed1565b9350506020611f5e86828701611ed1565b9250506040611f6f86828701611e1c565b9150509250925092565b600060208284031215611f8f57611f8e611c84565b5b6000611f9d84828501611ed1565b91505092915050565b611faf81611dfb565b82525050565b6000602082019050611fca6000830184611fa6565b92915050565b611fd981611d13565b8114611fe457600080fd5b50565b600081359050611ff681611fd0565b92915050565b6000806040838503121561201357612012611c84565b5b600061202185828601611ed1565b925050602061203285828601611fe7565b9150509250929050565b600080fd5b600080fd5b7f4e487b7100000000000000000000000000000000000000000000000000000000600052604160045260246000fd5b61207e82611d8f565b810181811067ffffffffffffffff8211171561209d5761209c612046565b5b80604052505050565b60006120b0611c7a565b90506120bc8282612075565b919050565b600067ffffffffffffffff8211156120dc576120db612046565b5b6120e582611d8f565b9050602081019050919050565b82818337600083830152505050565b600061211461210f846120c1565b6120a6565b9050828152602081018484840111156121305761212f612041565b5b61213b8482856120f2565b509392505050565b600082601f8301126121585761215761203c565b5b8135612168848260208601612101565b91505092915050565b6000806000806080858703121561218b5761218a611c84565b5b600061219987828801611ed1565b94505060206121aa87828801611ed1565b93505060406121bb87828801611e1c565b925050606085013567ffffffffffffffff8111156121dc576121db611c89565b5b6121e887828801612143565b91505092959194509250565b6000806040838503121561220b5761220a611c84565b5b600061221985828601611ed1565b925050602061222a85828601611ed1565b9150509250929050565b600067ffffffffffffffff82111561224f5761224e612046565b5b61225882611d8f565b9050602081019050919050565b600061227861227384612234565b6120a6565b90508281526020810184848401111561229457612293612041565b5b61229f8482856120f2565b509392505050565b600082601f8301126122bc576122bb61203c565b5b81356122cc848260208601612265565b91505092915050565b600080604083850312156122ec576122eb611c84565b5b600083013567ffffffffffffffff81111561230a57612309611c89565b5b612316858286016122a7565b925050602083013567ffffffffffffffff81111561233757612336611c89565b5b612343858286016122a7565b9150509250929050565b7f4e487b7100000000000000000000000000000000000000000000000000000000600052602260045260246000fd5b6000600282049050600182168061239457607f821691505b6020821081036123a7576123a661234d565b5b50919050565b7f4552433732313a20617070726f76616c20746f2063757272656e74206f776e6560008201527f7200000000000000000000000000000000000000000000000000000000000000602082015250565b6000612409602183611d54565b9150612414826123ad565b604082019050919050565b60006020820190508181036000830152612438816123fc565b9050919050565b7f4552433732313a20617070726f76652063616c6c6572206973206e6f7420746f60008201527f6b656e206f776e6572206f7220617070726f76656420666f7220616c6c000000602082015250565b600061249b603d83611d54565b91506124a68261243f565b604082019050919050565b600060208201905081810360008301526124ca8161248e565b9050919050565b7f4552433732313a2063616c6c6572206973206e6f7420746f6b656e206f776e6560008201527f72206f7220617070726f76656400000000000000000000000000000000000000602082015250565b600061252d602d83611d54565b9150612538826124d1565b604082019050919050565b6000602082019050818103600083015261255c81612520565b9050919050565b7f4552433732313a20696e76616c696420746f6b656e2049440000000000000000600082015250565b6000612599601883611d54565b91506125a482612563565b602082019050919050565b600060208201905081810360008301526125c88161258c565b9050919050565b7f4552433732313a2061646472657373207a65726f206973206e6f74206120766160008201527f6c6964206f776e65720000000000000000000000000000000000000000000000602082015250565b600061262b602983611d54565b9150612636826125cf565b604082019050919050565b6000602082019050818103600083015261265a8161261e565b9050919050565b7f4e487b7100000000000000000000000000000000000000000000000000000000600052603260045260246000fd5b600081905092915050565b7f7b226e616d65223a202200000000000000000000000000000000000000000000600082015250565b60006126d1600a83612690565b91506126dc8261269b565b600a82019050919050565b60008190508160005260206000209050919050565b600081546127098161237c565b6127138186612690565b9450600182166000811461272e576001811461274357612776565b60ff1983168652811515820286019350612776565b61274c856126e7565b60005b8381101561276e5781548189015260018201915060208101905061274f565b838801955050505b50505092915050565b7f202d2d204e465420233a20000000000000000000000000000000000000000000600082015250565b60006127b5600b83612690565b91506127c08261277f565b600b82019050919050565b60006127d682611d49565b6127e08185612690565b93506127f0818560208601611d65565b80840191505092915050565b7f222c20226465736372697074696f6e223a2022416e2065706963204e4654222c60008201527f2022696d616765223a2022697066733a2f2f0000000000000000000000000000602082015250565b6000612858603283612690565b9150612863826127fc565b603282019050919050565b7f227d000000000000000000000000000000000000000000000000000000000000600082015250565b60006128a4600283612690565b91506128af8261286e565b600282019050919050565b60006128c5826126c4565b91506128d182866126fc565b91506128dc826127a8565b91506128e882856127cb565b91506128f38261284b565b91506128ff82846126fc565b915061290a82612897565b9150819050949350505050565b7f646174613a6170706c69636174696f6e2f6a736f6e3b6261736536342c000000600082015250565b600061294d601d83612690565b915061295882612917565b601d82019050919050565b600061296e82612940565b915061297a82846127cb565b915081905092915050565b60006020601f8301049050919050565b600082821b905092915050565b6000600883026129d27fffffffffffffffffffffffffffffffffffffffffffffffffffffffffffffffff82612995565b6129dc8683612995565b95508019841693508086168417925050509392505050565b6000819050919050565b6000612a19612a14612a0f84611dfb565b6129f4565b611dfb565b9050919050565b6000819050919050565b612a33836129fe565b612a47612a3f82612a20565b8484546129a2565b825550505050565b600090565b612a5c612a4f565b612a67818484612a2a565b505050565b5b81811015612a8b57612a80600082612a54565b600181019050612a6d565b5050565b601f821115612ad057612aa1816126e7565b612aaa84612985565b81016020851015612ab9578190505b612acd612ac585612985565b830182612a6c565b50505b505050565b600082821c905092915050565b6000612af360001984600802612ad5565b1980831691505092915050565b6000612b0c8383612ae2565b9150826002028217905092915050565b612b2582611d49565b67ffffffffffffffff811115612b3e57612b3d612046565b5b612b48825461237c565b612b53828285612a8f565b600060209050601f831160018114612b865760008415612b74578287015190505b612b7e8582612b00565b865550612be6565b601f198416612b94866126e7565b60005b82811015612bbc57848901518255600182019150602085019450602081019050612b97565b86831015612bd95784890151612bd5601f891682612ae2565b8355505b6001600288020188555050505b505050505050565b7f4552433732313a207472616e736665722066726f6d20696e636f72726563742060008201527f6f776e6572000000000000000000000000000000000000000000000000000000602082015250565b6000612c4a602583611d54565b9150612c5582612bee565b604082019050919050565b60006020820190508181036000830152612c7981612c3d565b9050919050565b7f4552433732313a207472616e7366657220746f20746865207a65726f2061646460008201527f7265737300000000000000000000000000000000000000000000000000000000602082015250565b6000612cdc602483611d54565b9150612ce782612c80565b604082019050919050565b60006020820190508181036000830152612d0b81612ccf565b9050919050565b7f4552433732313a20617070726f766520746f2063616c6c657200000000000000600082015250565b6000612d48601983611d54565b9150612d5382612d12565b602082019050919050565b60006020820190508181036000830152612d7781612d3b565b9050919050565b7f4552433732313a207472616e7366657220746f206e6f6e20455243373231526560008201527f63656976657220696d706c656d656e7465720000000000000000000000000000602082015250565b6000612dda603283611d54565b9150612de582612d7e565b604082019050919050565b60006020820190508181036000830152612e0981612dcd565b9050919050565b7f4e487b7100000000000000000000000000000000000000000000000000000000600052601260045260246000fd5b7f4e487b7100000000000000000000000000000000000000000000000000000000600052601160045260246000fd5b6000612e7982611dfb565b9150612e8483611dfb565b9250828201905080821115612e9c57612e9b612e3f565b5b92915050565b6000612ead82611dfb565b9150612eb883611dfb565b925082612ec857612ec7612e10565b5b828204905092915050565b6000612ede82611dfb565b9150612ee983611dfb565b9250828202612ef781611dfb565b91508282048414831517612f0e57612f0d612e3f565b5b5092915050565b60006060820190508181036000830152612f2f8186611da0565b9050612f3e6020830185611fa6565b612f4b6040830184611e90565b949350505050565b6000612f5e82611dfb565b9150612f6983611dfb565b9250828203905081811115612f8157612f80612e3f565b5b92915050565b600081519050919050565b600082825260208201905092915050565b6000612fae82612f87565b612fb88185612f92565b9350612fc8818560208601611d65565b612fd181611d8f565b840191505092915050565b6000608082019050612ff16000830187611e90565b612ffe6020830186611e90565b61300b6040830185611fa6565b818103606083015261301d8184612fa3565b905095945050505050565b60008151905061303781611cba565b92915050565b60006020828403121561305357613052611c84565b5b600061306184828501613028565b91505092915050565b7f4552433732313a206d696e7420746f20746865207a65726f2061646472657373600082015250565b60006130a0602083611d54565b91506130ab8261306a565b602082019050919050565b600060208201905081810360008301526130cf81613093565b9050919050565b7f4552433732313a20746f6b656e20616c7265616479206d696e74656400000000600082015250565b600061310c601c83611d54565b9150613117826130d6565b602082019050919050565b6000602082019050818103600083015261313b816130ff565b905091905056fe416e204e465420772f20494420257320686173206265656e206d696e74656420746f2025734142434445464748494a4b4c4d4e4f505152535455565758595a6162636465666768696a6b6c6d6e6f707172737475767778797a303132333435363738392b2fa26469706673582212206ecb3adec9fd46f40865a91f342b6c54520bbc6e38cd4e69997d0591b3cf462d64736f6c63430008110033",
  "linkReferences": {},
  "deployedLinkReferences": {}
}